{
  "contractName": "NFTAuction",
  "abi": [
    {
      "inputs": [],
      "stateMutability": "nonpayable",
      "type": "constructor"
    },
    {
      "anonymous": false,
      "inputs": [
        {
          "indexed": true,
          "internalType": "address",
          "name": "owner",
          "type": "address"
        },
        {
          "indexed": true,
          "internalType": "address",
          "name": "approved",
          "type": "address"
        },
        {
          "indexed": true,
          "internalType": "uint256",
          "name": "tokenId",
          "type": "uint256"
        }
      ],
      "name": "Approval",
      "type": "event"
    },
    {
      "anonymous": false,
      "inputs": [
        {
          "indexed": true,
          "internalType": "address",
          "name": "owner",
          "type": "address"
        },
        {
          "indexed": true,
          "internalType": "address",
          "name": "operator",
          "type": "address"
        },
        {
          "indexed": false,
          "internalType": "bool",
          "name": "approved",
          "type": "bool"
        }
      ],
      "name": "ApprovalForAll",
      "type": "event"
    },
    {
      "anonymous": false,
      "inputs": [
        {
          "indexed": true,
          "internalType": "address",
          "name": "from",
          "type": "address"
        },
        {
          "indexed": true,
          "internalType": "address",
          "name": "to",
          "type": "address"
        },
        {
          "indexed": true,
          "internalType": "uint256",
          "name": "tokenId",
          "type": "uint256"
        }
      ],
      "name": "Transfer",
      "type": "event"
    },
    {
      "inputs": [
        {
          "internalType": "uint256",
          "name": "",
          "type": "uint256"
        }
      ],
      "name": "AuctionsOfNFT",
      "outputs": [
        {
          "internalType": "uint256",
          "name": "minBid",
          "type": "uint256"
        },
        {
          "internalType": "address payable",
          "name": "highestBidder",
          "type": "address"
        },
        {
          "internalType": "uint256",
          "name": "highestBid",
          "type": "uint256"
        },
        {
          "internalType": "uint256",
          "name": "endTime",
          "type": "uint256"
        },
        {
          "internalType": "bool",
          "name": "ended",
          "type": "bool"
        },
        {
          "internalType": "bool",
          "name": "claimed",
          "type": "bool"
        }
      ],
      "stateMutability": "view",
      "type": "function"
    },
    {
      "inputs": [],
      "name": "NFTCounter",
      "outputs": [
        {
          "internalType": "uint256",
          "name": "",
          "type": "uint256"
        }
      ],
      "stateMutability": "view",
      "type": "function"
    },
    {
      "inputs": [
        {
          "internalType": "uint256",
          "name": "",
          "type": "uint256"
        }
      ],
      "name": "allNFTs",
      "outputs": [
        {
          "internalType": "uint256",
          "name": "tokenID",
          "type": "uint256"
        },
        {
          "internalType": "string",
          "name": "tokenName",
          "type": "string"
        },
        {
          "internalType": "string",
          "name": "tokenURI",
          "type": "string"
        },
        {
          "internalType": "address payable",
          "name": "mintedBy",
          "type": "address"
        },
        {
          "internalType": "address payable",
          "name": "currentOwner",
          "type": "address"
        },
        {
          "internalType": "address payable",
          "name": "previousOwner",
          "type": "address"
        },
        {
          "internalType": "uint256",
          "name": "price",
          "type": "uint256"
        },
        {
          "internalType": "uint256",
          "name": "transNum",
          "type": "uint256"
        },
        {
          "internalType": "bool",
          "name": "onSale",
          "type": "bool"
        }
      ],
      "stateMutability": "view",
      "type": "function"
    },
    {
      "inputs": [
        {
          "internalType": "address",
          "name": "to",
          "type": "address"
        },
        {
          "internalType": "uint256",
          "name": "tokenId",
          "type": "uint256"
        }
      ],
      "name": "approve",
      "outputs": [],
      "stateMutability": "nonpayable",
      "type": "function"
    },
    {
      "inputs": [
        {
          "internalType": "address",
          "name": "",
          "type": "address"
        },
        {
          "internalType": "uint256",
          "name": "",
          "type": "uint256"
        }
      ],
      "name": "attendAuctions",
      "outputs": [
        {
          "internalType": "uint256",
          "name": "",
          "type": "uint256"
        }
      ],
      "stateMutability": "view",
      "type": "function"
    },
    {
      "inputs": [
        {
          "internalType": "address",
          "name": "",
          "type": "address"
        }
      ],
      "name": "attendAuctionsNum",
      "outputs": [
        {
          "internalType": "uint256",
          "name": "",
          "type": "uint256"
        }
      ],
      "stateMutability": "view",
      "type": "function"
    },
    {
      "inputs": [
        {
          "internalType": "address",
          "name": "owner",
          "type": "address"
        }
      ],
      "name": "balanceOf",
      "outputs": [
        {
          "internalType": "uint256",
          "name": "",
          "type": "uint256"
        }
      ],
      "stateMutability": "view",
      "type": "function"
    },
    {
      "inputs": [],
      "name": "collectionName",
      "outputs": [
        {
          "internalType": "string",
          "name": "",
          "type": "string"
        }
      ],
      "stateMutability": "view",
      "type": "function"
    },
    {
      "inputs": [],
      "name": "collectionNameSymbol",
      "outputs": [
        {
          "internalType": "string",
          "name": "",
          "type": "string"
        }
      ],
      "stateMutability": "view",
      "type": "function"
    },
    {
      "inputs": [
        {
          "internalType": "uint256",
          "name": "",
          "type": "uint256"
        },
        {
          "internalType": "address",
          "name": "",
          "type": "address"
        }
      ],
      "name": "fundsByBidder",
      "outputs": [
        {
          "internalType": "uint256",
          "name": "",
          "type": "uint256"
        }
      ],
      "stateMutability": "view",
      "type": "function"
    },
    {
      "inputs": [
        {
          "internalType": "uint256",
          "name": "tokenId",
          "type": "uint256"
        }
      ],
      "name": "getApproved",
      "outputs": [
        {
          "internalType": "address",
          "name": "",
          "type": "address"
        }
      ],
      "stateMutability": "view",
      "type": "function"
    },
    {
      "inputs": [
        {
          "internalType": "address",
          "name": "owner",
          "type": "address"
        },
        {
          "internalType": "address",
          "name": "operator",
          "type": "address"
        }
      ],
      "name": "isApprovedForAll",
      "outputs": [
        {
          "internalType": "bool",
          "name": "",
          "type": "bool"
        }
      ],
      "stateMutability": "view",
      "type": "function"
    },
    {
      "inputs": [],
      "name": "name",
      "outputs": [
        {
          "internalType": "string",
          "name": "",
          "type": "string"
        }
      ],
      "stateMutability": "view",
      "type": "function"
    },
    {
      "inputs": [
        {
          "internalType": "uint256",
          "name": "tokenId",
          "type": "uint256"
        }
      ],
      "name": "ownerOf",
      "outputs": [
        {
          "internalType": "address",
          "name": "",
          "type": "address"
        }
      ],
      "stateMutability": "view",
      "type": "function"
    },
    {
      "inputs": [
        {
          "internalType": "address",
          "name": "from",
          "type": "address"
        },
        {
          "internalType": "address",
          "name": "to",
          "type": "address"
        },
        {
          "internalType": "uint256",
          "name": "tokenId",
          "type": "uint256"
        }
      ],
      "name": "safeTransferFrom",
      "outputs": [],
      "stateMutability": "nonpayable",
      "type": "function"
    },
    {
      "inputs": [
        {
          "internalType": "address",
          "name": "from",
          "type": "address"
        },
        {
          "internalType": "address",
          "name": "to",
          "type": "address"
        },
        {
          "internalType": "uint256",
          "name": "tokenId",
          "type": "uint256"
        },
        {
          "internalType": "bytes",
          "name": "_data",
          "type": "bytes"
        }
      ],
      "name": "safeTransferFrom",
      "outputs": [],
      "stateMutability": "nonpayable",
      "type": "function"
    },
    {
      "inputs": [
        {
          "internalType": "address",
          "name": "operator",
          "type": "address"
        },
        {
          "internalType": "bool",
          "name": "approved",
          "type": "bool"
        }
      ],
      "name": "setApprovalForAll",
      "outputs": [],
      "stateMutability": "nonpayable",
      "type": "function"
    },
    {
      "inputs": [
        {
          "internalType": "bytes4",
          "name": "interfaceId",
          "type": "bytes4"
        }
      ],
      "name": "supportsInterface",
      "outputs": [
        {
          "internalType": "bool",
          "name": "",
          "type": "bool"
        }
      ],
      "stateMutability": "view",
      "type": "function"
    },
    {
      "inputs": [],
      "name": "symbol",
      "outputs": [
        {
          "internalType": "string",
          "name": "",
          "type": "string"
        }
      ],
      "stateMutability": "view",
      "type": "function"
    },
    {
      "inputs": [
        {
          "internalType": "string",
          "name": "",
          "type": "string"
        }
      ],
      "name": "tokenNameExists",
      "outputs": [
        {
          "internalType": "bool",
          "name": "",
          "type": "bool"
        }
      ],
      "stateMutability": "view",
      "type": "function"
    },
    {
      "inputs": [
        {
          "internalType": "uint256",
          "name": "tokenId",
          "type": "uint256"
        }
      ],
      "name": "tokenURI",
      "outputs": [
        {
          "internalType": "string",
          "name": "",
          "type": "string"
        }
      ],
      "stateMutability": "view",
      "type": "function"
    },
    {
      "inputs": [
        {
          "internalType": "string",
          "name": "",
          "type": "string"
        }
      ],
      "name": "tokenURIExists",
      "outputs": [
        {
          "internalType": "bool",
          "name": "",
          "type": "bool"
        }
      ],
      "stateMutability": "view",
      "type": "function"
    },
    {
      "inputs": [
        {
          "internalType": "address",
          "name": "from",
          "type": "address"
        },
        {
          "internalType": "address",
          "name": "to",
          "type": "address"
        },
        {
          "internalType": "uint256",
          "name": "tokenId",
          "type": "uint256"
        }
      ],
      "name": "transferFrom",
      "outputs": [],
      "stateMutability": "nonpayable",
      "type": "function"
    },
    {
      "inputs": [],
      "name": "getTime",
      "outputs": [
        {
          "internalType": "uint256",
          "name": "",
          "type": "uint256"
        }
      ],
      "stateMutability": "view",
      "type": "function"
    },
    {
      "inputs": [
        {
          "internalType": "string",
          "name": "_name",
          "type": "string"
        },
        {
          "internalType": "string",
          "name": "_tokenURI",
          "type": "string"
        },
        {
          "internalType": "uint256",
          "name": "_price",
          "type": "uint256"
        }
      ],
      "name": "mintNFT",
      "outputs": [],
      "stateMutability": "nonpayable",
      "type": "function"
    },
    {
      "inputs": [
        {
          "internalType": "uint256",
          "name": "_tokenID",
          "type": "uint256"
        }
      ],
      "name": "getTokenOwner",
      "outputs": [
        {
          "internalType": "address",
          "name": "",
          "type": "address"
        }
      ],
      "stateMutability": "view",
      "type": "function"
    },
    {
      "inputs": [
        {
          "internalType": "uint256",
          "name": "_tokenID",
          "type": "uint256"
        }
      ],
      "name": "getTokenMetaData",
      "outputs": [
        {
          "internalType": "string",
          "name": "",
          "type": "string"
        }
      ],
      "stateMutability": "view",
      "type": "function"
    },
    {
      "inputs": [
        {
          "internalType": "address",
          "name": "_owner",
          "type": "address"
        }
      ],
      "name": "getTotalNumberOfTokensOwnedByAnAddress",
      "outputs": [
        {
          "internalType": "uint256",
          "name": "",
          "type": "uint256"
        }
      ],
      "stateMutability": "view",
      "type": "function"
    },
    {
      "inputs": [
        {
          "internalType": "uint256",
          "name": "_tokenID",
          "type": "uint256"
        },
        {
          "internalType": "uint256",
          "name": "_minBid",
          "type": "uint256"
        },
        {
          "internalType": "uint256",
          "name": "_duration",
          "type": "uint256"
        }
      ],
      "name": "beginAuction",
      "outputs": [
        {
          "internalType": "bool",
          "name": "success",
          "type": "bool"
        }
      ],
      "stateMutability": "nonpayable",
      "type": "function"
    },
    {
      "inputs": [
        {
          "internalType": "uint256",
          "name": "_tokenID",
          "type": "uint256"
        },
        {
          "internalType": "uint256",
          "name": "newBid",
          "type": "uint256"
        }
      ],
      "name": "increaseBid",
      "outputs": [
        {
          "internalType": "bool",
          "name": "success",
          "type": "bool"
        }
      ],
      "stateMutability": "nonpayable",
      "type": "function"
    },
    {
      "inputs": [
        {
          "internalType": "uint256",
          "name": "_tokenID",
          "type": "uint256"
        }
      ],
      "name": "endAuction",
      "outputs": [
        {
          "internalType": "bool",
          "name": "success",
          "type": "bool"
        }
      ],
      "stateMutability": "nonpayable",
      "type": "function"
    },
    {
      "inputs": [
        {
          "internalType": "uint256",
          "name": "_tokenID",
          "type": "uint256"
        }
      ],
      "name": "claimNFT",
      "outputs": [
        {
          "internalType": "bool",
          "name": "success",
          "type": "bool"
        }
      ],
      "stateMutability": "payable",
      "type": "function"
    }
  ],
  "bytecode": "0x60806040523480156200001157600080fd5b506040518060400160405280600e81526020017f4e465420436f6c6c656374696f6e0000000000000000000000000000000000008152506040518060400160405280600381526020017f4e465400000000000000000000000000000000000000000000000000000000008152508160009080519060200190620000969291906200023c565b508060019080519060200190620000af9291906200023c565b505050620000c26200010860201b60201c565b60079080519060200190620000d99291906200023c565b50620000ea620001a260201b60201c565b60089080519060200190620001019291906200023c565b5062000351565b60606000805462000119906200031b565b80601f016020809104026020016040519081016040528092919081815260200182805462000147906200031b565b8015620001985780601f106200016c5761010080835404028352916020019162000198565b820191906000526020600020905b8154815290600101906020018083116200017a57829003601f168201915b5050505050905090565b606060018054620001b3906200031b565b80601f0160208091040260200160405190810160405280929190818152602001828054620001e1906200031b565b8015620002325780601f10620002065761010080835404028352916020019162000232565b820191906000526020600020905b8154815290600101906020018083116200021457829003601f168201915b5050505050905090565b8280546200024a906200031b565b90600052602060002090601f0160209004810192826200026e5760008555620002ba565b82601f106200028957805160ff1916838001178555620002ba565b82800160010185558215620002ba579182015b82811115620002b95782518255916020019190600101906200029c565b5b509050620002c99190620002cd565b5090565b5b80821115620002e8576000816000905550600101620002ce565b5090565b7f4e487b7100000000000000000000000000000000000000000000000000000000600052602260045260246000fd5b600060028204905060018216806200033457607f821691505b602082108114156200034b576200034a620002ec565b5b50919050565b6156f380620003616000396000f3fe6080604052600436106101e35760003560e01c80636f9507f911610102578063b88d4fde11610095578063c87b56dd11610064578063c87b56dd146107cf578063e5326ab11461080c578063e985e9c514610837578063fe5c873a14610874576101e3565b8063b88d4fde146106e2578063b9a2de3a1461070b578063bf162d6714610748578063c21b74941461078d576101e3565b80639bd2a574116100d15780639bd2a57414610602578063a22cb4651461063f578063a46b1fac14610668578063a5cd761f146106a5576101e3565b80636f9507f91461053257806370a082311461055d5780638570a8171461059a57806395d89b41146105d7576101e3565b806342842e0e1161017a578063557ed1ba11610149578063557ed1ba146104645780636352211e1461048f57806364b30907146104cc57806367c623cf146104f5576101e3565b806342842e0e1461039657806343902850146103bf57806343d32ae7146103fc5780635508d8e114610439576101e3565b80631a7eb8c8116101b65780631a7eb8c8146102b65780631dd92a66146102f357806323b872dd1461033057806326fe306514610359576101e3565b806301ffc9a7146101e857806306fdde0314610225578063081812fc14610250578063095ea7b31461028d575b600080fd5b3480156101f457600080fd5b5061020f600480360381019061020a9190613f02565b6108a4565b60405161021c9190613f4a565b60405180910390f35b34801561023157600080fd5b5061023a610986565b6040516102479190613ffe565b60405180910390f35b34801561025c57600080fd5b5061027760048036038101906102729190614056565b610a18565b60405161028491906140c4565b60405180910390f35b34801561029957600080fd5b506102b460048036038101906102af919061410b565b610a9d565b005b3480156102c257600080fd5b506102dd60048036038101906102d8919061410b565b610bb5565b6040516102ea919061415a565b60405180910390f35b3480156102ff57600080fd5b5061031a60048036038101906103159190614175565b610be6565b6040516103279190613f4a565b60405180910390f35b34801561033c57600080fd5b50610357600480360381019061035291906141b5565b6114aa565b005b34801561036557600080fd5b50610380600480360381019061037b9190614208565b61150a565b60405161038d919061415a565b60405180910390f35b3480156103a257600080fd5b506103bd60048036038101906103b891906141b5565b61152f565b005b3480156103cb57600080fd5b506103e660048036038101906103e19190614248565b61154f565b6040516103f3919061415a565b60405180910390f35b34801561040857600080fd5b50610423600480360381019061041e91906143aa565b611566565b6040516104309190613f4a565b60405180910390f35b34801561044557600080fd5b5061044e61159c565b60405161045b919061415a565b60405180910390f35b34801561047057600080fd5b506104796115a2565b604051610486919061415a565b60405180910390f35b34801561049b57600080fd5b506104b660048036038101906104b19190614056565b6115aa565b6040516104c391906140c4565b60405180910390f35b3480156104d857600080fd5b506104f360048036038101906104ee91906143f3565b61165c565b005b34801561050157600080fd5b5061051c60048036038101906105179190614056565b6119e5565b6040516105299190613ffe565b60405180910390f35b34801561053e57600080fd5b506105476119fd565b6040516105549190613ffe565b60405180910390f35b34801561056957600080fd5b50610584600480360381019061057f9190614248565b611a8b565b604051610591919061415a565b60405180910390f35b3480156105a657600080fd5b506105c160048036038101906105bc9190614248565b611b43565b6040516105ce919061415a565b60405180910390f35b3480156105e357600080fd5b506105ec611b5b565b6040516105f99190613ffe565b60405180910390f35b34801561060e57600080fd5b506106296004803603810190610624919061447e565b611bed565b6040516106369190613f4a565b60405180910390f35b34801561064b57600080fd5b50610666600480360381019061066191906144fd565b6121d1565b005b34801561067457600080fd5b5061068f600480360381019061068a91906143aa565b612352565b60405161069c9190613f4a565b60405180910390f35b3480156106b157600080fd5b506106cc60048036038101906106c79190614056565b612388565b6040516106d991906140c4565b60405180910390f35b3480156106ee57600080fd5b50610709600480360381019061070491906145de565b61239f565b005b34801561071757600080fd5b50610732600480360381019061072d9190614056565b612401565b60405161073f9190613f4a565b60405180910390f35b34801561075457600080fd5b5061076f600480360381019061076a9190614056565b612637565b60405161078499989796959493929190614682565b60405180910390f35b34801561079957600080fd5b506107b460048036038101906107af9190614056565b612802565b6040516107c69695949392919061471d565b60405180910390f35b3480156107db57600080fd5b506107f660048036038101906107f19190614056565b612878565b6040516108039190613ffe565b60405180910390f35b34801561081857600080fd5b506108216129ca565b60405161082e9190613ffe565b60405180910390f35b34801561084357600080fd5b5061085e6004803603810190610859919061477e565b612a58565b60405161086b9190613f4a565b60405180910390f35b61088e60048036038101906108899190614056565b612aec565b60405161089b9190613f4a565b60405180910390f35b60007f80ac58cd000000000000000000000000000000000000000000000000000000007bffffffffffffffffffffffffffffffffffffffffffffffffffffffff1916827bffffffffffffffffffffffffffffffffffffffffffffffffffffffff1916148061096f57507f5b5e139f000000000000000000000000000000000000000000000000000000007bffffffffffffffffffffffffffffffffffffffffffffffffffffffff1916827bffffffffffffffffffffffffffffffffffffffffffffffffffffffff1916145b8061097f575061097e8261323d565b5b9050919050565b606060008054610995906147ed565b80601f01602080910402602001604051908101604052809291908181526020018280546109c1906147ed565b8015610a0e5780601f106109e357610100808354040283529160200191610a0e565b820191906000526020600020905b8154815290600101906020018083116109f157829003601f168201915b5050505050905090565b6000610a23826132a7565b610a62576040517f08c379a0000000000000000000000000000000000000000000000000000000008152600401610a5990614891565b60405180910390fd5b6004600083815260200190815260200160002060009054906101000a900473ffffffffffffffffffffffffffffffffffffffff169050919050565b6000610aa8826115aa565b90508073ffffffffffffffffffffffffffffffffffffffff168373ffffffffffffffffffffffffffffffffffffffff161415610b19576040517f08c379a0000000000000000000000000000000000000000000000000000000008152600401610b1090614923565b60405180910390fd5b8073ffffffffffffffffffffffffffffffffffffffff16610b38613313565b73ffffffffffffffffffffffffffffffffffffffff161480610b675750610b6681610b61613313565b612a58565b5b610ba6576040517f08c379a0000000000000000000000000000000000000000000000000000000008152600401610b9d906149b5565b60405180910390fd5b610bb0838361331b565b505050565b600d6020528160005260406000208181548110610bd157600080fd5b90600052602060002001600091509150505481565b600082610bf2816132a7565b610c31576040517f08c379a0000000000000000000000000000000000000000000000000000000008152600401610c2890614a21565b60405180910390fd5b83610c3b816115aa565b73ffffffffffffffffffffffffffffffffffffffff163373ffffffffffffffffffffffffffffffffffffffff161415610ca9576040517f08c379a0000000000000000000000000000000000000000000000000000000008152600401610ca090614a8d565b60405180910390fd5b846000600b60008381526020019081526020016000206040518060c0016040529081600082015481526020016001820160009054906101000a900473ffffffffffffffffffffffffffffffffffffffff1673ffffffffffffffffffffffffffffffffffffffff1673ffffffffffffffffffffffffffffffffffffffff16815260200160028201548152602001600382015481526020016004820160009054906101000a900460ff161515151581526020016004820160019054906101000a900460ff16151515158152505090508060600151421115610dbd576040517f08c379a0000000000000000000000000000000000000000000000000000000008152600401610db490614af9565b60405180910390fd5b6000600b60008981526020019081526020016000206040518060c0016040529081600082015481526020016001820160009054906101000a900473ffffffffffffffffffffffffffffffffffffffff1673ffffffffffffffffffffffffffffffffffffffff1673ffffffffffffffffffffffffffffffffffffffff16815260200160028201548152602001600382015481526020016004820160009054906101000a900460ff161515151581526020016004820160019054906101000a900460ff161515151581525050905080604001518711610e9957600080fd5b6000600a60008a81526020019081526020016000206040518061012001604052908160008201548152602001600182018054610ed4906147ed565b80601f0160208091040260200160405190810160405280929190818152602001828054610f00906147ed565b8015610f4d5780601f10610f2257610100808354040283529160200191610f4d565b820191906000526020600020905b815481529060010190602001808311610f3057829003601f168201915b50505050508152602001600282018054610f66906147ed565b80601f0160208091040260200160405190810160405280929190818152602001828054610f92906147ed565b8015610fdf5780601f10610fb457610100808354040283529160200191610fdf565b820191906000526020600020905b815481529060010190602001808311610fc257829003601f168201915b505050505081526020016003820160009054906101000a900473ffffffffffffffffffffffffffffffffffffffff1673ffffffffffffffffffffffffffffffffffffffff1673ffffffffffffffffffffffffffffffffffffffff1681526020016004820160009054906101000a900473ffffffffffffffffffffffffffffffffffffffff1673ffffffffffffffffffffffffffffffffffffffff1673ffffffffffffffffffffffffffffffffffffffff1681526020016005820160009054906101000a900473ffffffffffffffffffffffffffffffffffffffff1673ffffffffffffffffffffffffffffffffffffffff1673ffffffffffffffffffffffffffffffffffffffff16815260200160068201548152602001600782015481526020016008820160009054906101000a900460ff1615151515815250509050878160c001818152505080600a60008b815260200190815260200160002060008201518160000155602082015181600101908051906020019061115f929190613df3565b50604082015181600201908051906020019061117c929190613df3565b5060608201518160030160006101000a81548173ffffffffffffffffffffffffffffffffffffffff021916908373ffffffffffffffffffffffffffffffffffffffff16021790555060808201518160040160006101000a81548173ffffffffffffffffffffffffffffffffffffffff021916908373ffffffffffffffffffffffffffffffffffffffff16021790555060a08201518160050160006101000a81548173ffffffffffffffffffffffffffffffffffffffff021916908373ffffffffffffffffffffffffffffffffffffffff16021790555060c0820151816006015560e082015181600701556101008201518160080160006101000a81548160ff0219169083151502179055509050506001600e60003373ffffffffffffffffffffffffffffffffffffffff1673ffffffffffffffffffffffffffffffffffffffff16815260200190815260200160002060008282546112da9190614b48565b92505081905550600d60003373ffffffffffffffffffffffffffffffffffffffff1673ffffffffffffffffffffffffffffffffffffffff16815260200190815260200160002089908060018154018082558091505060019003906000526020600020016000909190919091505587600c60008b815260200190815260200160002060003373ffffffffffffffffffffffffffffffffffffffff1673ffffffffffffffffffffffffffffffffffffffff1681526020019081526020016000208190555033826020019073ffffffffffffffffffffffffffffffffffffffff16908173ffffffffffffffffffffffffffffffffffffffff16815250508782604001818152505081600b60008b81526020019081526020016000206000820151816000015560208201518160010160006101000a81548173ffffffffffffffffffffffffffffffffffffffff021916908373ffffffffffffffffffffffffffffffffffffffff160217905550604082015181600201556060820151816003015560808201518160040160006101000a81548160ff02191690831515021790555060a08201518160040160016101000a81548160ff0219169083151502179055509050506001965050505050505092915050565b6114bb6114b5613313565b826133d4565b6114fa576040517f08c379a00000000000000000000000000000000000000000000000000000000081526004016114f190614c10565b60405180910390fd5b6115058383836134b2565b505050565b600c602052816000526040600020602052806000526040600020600091509150505481565b61154a8383836040518060200160405280600081525061239f565b505050565b60008061155b83611a8b565b905080915050919050565b6010818051602081018201805184825260208301602085012081835280955050505050506000915054906101000a900460ff1681565b60095481565b600042905090565b6000806002600084815260200190815260200160002060009054906101000a900473ffffffffffffffffffffffffffffffffffffffff169050600073ffffffffffffffffffffffffffffffffffffffff168173ffffffffffffffffffffffffffffffffffffffff161415611653576040517f08c379a000000000000000000000000000000000000000000000000000000000815260040161164a90614ca2565b60405180910390fd5b80915050919050565b600073ffffffffffffffffffffffffffffffffffffffff163373ffffffffffffffffffffffffffffffffffffffff1614156116cc576040517f08c379a00000000000000000000000000000000000000000000000000000000081526004016116c390614d34565b60405180910390fd5b600960008154809291906116df90614d54565b91905055506116ef6009546132a7565b156116f957600080fd5b6010826040516117099190614dd9565b908152602001604051809103902060009054906101000a900460ff161561172f57600080fd5b600f8360405161173f9190614dd9565b908152602001604051809103902060009054906101000a900460ff161561176557600080fd5b6117713360095461370e565b61177d6009548361372c565b600160108360405161178f9190614dd9565b908152602001604051809103902060006101000a81548160ff0219169083151502179055506001600f846040516117c69190614dd9565b908152602001604051809103902060006101000a81548160ff021916908315150217905550600060405180610120016040528060095481526020018581526020018481526020013373ffffffffffffffffffffffffffffffffffffffff1681526020013373ffffffffffffffffffffffffffffffffffffffff168152602001600073ffffffffffffffffffffffffffffffffffffffff1681526020018381526020016000815260200160001515815250905080600a600060095481526020019081526020016000206000820151816000015560208201518160010190805190602001906118b4929190613df3565b5060408201518160020190805190602001906118d1929190613df3565b5060608201518160030160006101000a81548173ffffffffffffffffffffffffffffffffffffffff021916908373ffffffffffffffffffffffffffffffffffffffff16021790555060808201518160040160006101000a81548173ffffffffffffffffffffffffffffffffffffffff021916908373ffffffffffffffffffffffffffffffffffffffff16021790555060a08201518160050160006101000a81548173ffffffffffffffffffffffffffffffffffffffff021916908373ffffffffffffffffffffffffffffffffffffffff16021790555060c0820151816006015560e082015181600701556101008201518160080160006101000a81548160ff02191690831515021790555090505050505050565b606060006119f283612878565b905080915050919050565b60088054611a0a906147ed565b80601f0160208091040260200160405190810160405280929190818152602001828054611a36906147ed565b8015611a835780601f10611a5857610100808354040283529160200191611a83565b820191906000526020600020905b815481529060010190602001808311611a6657829003601f168201915b505050505081565b60008073ffffffffffffffffffffffffffffffffffffffff168273ffffffffffffffffffffffffffffffffffffffff161415611afc576040517f08c379a0000000000000000000000000000000000000000000000000000000008152600401611af390614e62565b60405180910390fd5b600360008373ffffffffffffffffffffffffffffffffffffffff1673ffffffffffffffffffffffffffffffffffffffff168152602001908152602001600020549050919050565b600e6020528060005260406000206000915090505481565b606060018054611b6a906147ed565b80601f0160208091040260200160405190810160405280929190818152602001828054611b96906147ed565b8015611be35780601f10611bb857610100808354040283529160200191611be3565b820191906000526020600020905b815481529060010190602001808311611bc657829003601f168201915b5050505050905090565b600083611bf9816132a7565b611c38576040517f08c379a0000000000000000000000000000000000000000000000000000000008152600401611c2f90614a21565b60405180910390fd5b84611c42816115aa565b73ffffffffffffffffffffffffffffffffffffffff163373ffffffffffffffffffffffffffffffffffffffff1614611caf576040517f08c379a0000000000000000000000000000000000000000000000000000000008152600401611ca690614ef4565b60405180910390fd5b60008442611cbd9190614b48565b90506000600a60008981526020019081526020016000206040518061012001604052908160008201548152602001600182018054611cfa906147ed565b80601f0160208091040260200160405190810160405280929190818152602001828054611d26906147ed565b8015611d735780601f10611d4857610100808354040283529160200191611d73565b820191906000526020600020905b815481529060010190602001808311611d5657829003601f168201915b50505050508152602001600282018054611d8c906147ed565b80601f0160208091040260200160405190810160405280929190818152602001828054611db8906147ed565b8015611e055780601f10611dda57610100808354040283529160200191611e05565b820191906000526020600020905b815481529060010190602001808311611de857829003601f168201915b505050505081526020016003820160009054906101000a900473ffffffffffffffffffffffffffffffffffffffff1673ffffffffffffffffffffffffffffffffffffffff1673ffffffffffffffffffffffffffffffffffffffff1681526020016004820160009054906101000a900473ffffffffffffffffffffffffffffffffffffffff1673ffffffffffffffffffffffffffffffffffffffff1673ffffffffffffffffffffffffffffffffffffffff1681526020016005820160009054906101000a900473ffffffffffffffffffffffffffffffffffffffff1673ffffffffffffffffffffffffffffffffffffffff1673ffffffffffffffffffffffffffffffffffffffff16815260200160068201548152602001600782015481526020016008820160009054906101000a900460ff161515151581525050905060018161010001901515908115158152505060006040518060c001604052808981526020013373ffffffffffffffffffffffffffffffffffffffff16815260200189815260200184815260200160001515815260200160001515815250905081600a60008b8152602001908152602001600020600082015181600001556020820151816001019080519060200190611fda929190613df3565b506040820151816002019080519060200190611ff7929190613df3565b5060608201518160030160006101000a81548173ffffffffffffffffffffffffffffffffffffffff021916908373ffffffffffffffffffffffffffffffffffffffff16021790555060808201518160040160006101000a81548173ffffffffffffffffffffffffffffffffffffffff021916908373ffffffffffffffffffffffffffffffffffffffff16021790555060a08201518160050160006101000a81548173ffffffffffffffffffffffffffffffffffffffff021916908373ffffffffffffffffffffffffffffffffffffffff16021790555060c0820151816006015560e082015181600701556101008201518160080160006101000a81548160ff02191690831515021790555090505080600b60008b81526020019081526020016000206000820151816000015560208201518160010160006101000a81548173ffffffffffffffffffffffffffffffffffffffff021916908373ffffffffffffffffffffffffffffffffffffffff160217905550604082015181600201556060820151816003015560808201518160040160006101000a81548160ff02191690831515021790555060a08201518160040160016101000a81548160ff0219169083151502179055509050506001955050505050509392505050565b6121d9613313565b73ffffffffffffffffffffffffffffffffffffffff168273ffffffffffffffffffffffffffffffffffffffff161415612247576040517f08c379a000000000000000000000000000000000000000000000000000000000815260040161223e90614f60565b60405180910390fd5b8060056000612254613313565b73ffffffffffffffffffffffffffffffffffffffff1673ffffffffffffffffffffffffffffffffffffffff16815260200190815260200160002060008473ffffffffffffffffffffffffffffffffffffffff1673ffffffffffffffffffffffffffffffffffffffff16815260200190815260200160002060006101000a81548160ff0219169083151502179055508173ffffffffffffffffffffffffffffffffffffffff16612301613313565b73ffffffffffffffffffffffffffffffffffffffff167f17307eab39ab6107e8899845ad3d59bd9653f200f220920489ca2b5937696c31836040516123469190613f4a565b60405180910390a35050565b600f818051602081018201805184825260208301602085012081835280955050505050506000915054906101000a900460ff1681565b600080612394836115aa565b905080915050919050565b6123b06123aa613313565b836133d4565b6123ef576040517f08c379a00000000000000000000000000000000000000000000000000000000081526004016123e690614c10565b60405180910390fd5b6123fb848484846137a0565b50505050565b60008161240d816132a7565b61244c576040517f08c379a000000000000000000000000000000000000000000000000000000000815260040161244390614a21565b60405180910390fd5b6000600b60008581526020019081526020016000206040518060c0016040529081600082015481526020016001820160009054906101000a900473ffffffffffffffffffffffffffffffffffffffff1673ffffffffffffffffffffffffffffffffffffffff1673ffffffffffffffffffffffffffffffffffffffff16815260200160028201548152602001600382015481526020016004820160009054906101000a900460ff161515151581526020016004820160019054906101000a900460ff1615151515815250509050806060015142101561255f576040517f08c379a000000000000000000000000000000000000000000000000000000000815260040161255690614fcc565b60405180910390fd5b600181608001901515908115158152505080600b60008681526020019081526020016000206000820151816000015560208201518160010160006101000a81548173ffffffffffffffffffffffffffffffffffffffff021916908373ffffffffffffffffffffffffffffffffffffffff160217905550604082015181600201556060820151816003015560808201518160040160006101000a81548160ff02191690831515021790555060a08201518160040160016101000a81548160ff021916908315150217905550905050600192505050919050565b600a602052806000526040600020600091509050806000015490806001018054612660906147ed565b80601f016020809104026020016040519081016040528092919081815260200182805461268c906147ed565b80156126d95780601f106126ae576101008083540402835291602001916126d9565b820191906000526020600020905b8154815290600101906020018083116126bc57829003601f168201915b5050505050908060020180546126ee906147ed565b80601f016020809104026020016040519081016040528092919081815260200182805461271a906147ed565b80156127675780601f1061273c57610100808354040283529160200191612767565b820191906000526020600020905b81548152906001019060200180831161274a57829003601f168201915b5050505050908060030160009054906101000a900473ffffffffffffffffffffffffffffffffffffffff16908060040160009054906101000a900473ffffffffffffffffffffffffffffffffffffffff16908060050160009054906101000a900473ffffffffffffffffffffffffffffffffffffffff16908060060154908060070154908060080160009054906101000a900460ff16905089565b600b6020528060005260406000206000915090508060000154908060010160009054906101000a900473ffffffffffffffffffffffffffffffffffffffff16908060020154908060030154908060040160009054906101000a900460ff16908060040160019054906101000a900460ff16905086565b6060612883826132a7565b6128c2576040517f08c379a00000000000000000000000000000000000000000000000000000000081526004016128b99061505e565b60405180910390fd5b60006006600084815260200190815260200160002080546128e2906147ed565b80601f016020809104026020016040519081016040528092919081815260200182805461290e906147ed565b801561295b5780601f106129305761010080835404028352916020019161295b565b820191906000526020600020905b81548152906001019060200180831161293e57829003601f168201915b50505050509050600061296c6137fc565b90506000815114156129825781925050506129c5565b6000825111156129b757808260405160200161299f92919061507e565b604051602081830303815290604052925050506129c5565b6129c084613813565b925050505b919050565b600780546129d7906147ed565b80601f0160208091040260200160405190810160405280929190818152602001828054612a03906147ed565b8015612a505780601f10612a2557610100808354040283529160200191612a50565b820191906000526020600020905b815481529060010190602001808311612a3357829003601f168201915b505050505081565b6000600560008473ffffffffffffffffffffffffffffffffffffffff1673ffffffffffffffffffffffffffffffffffffffff16815260200190815260200160002060008373ffffffffffffffffffffffffffffffffffffffff1673ffffffffffffffffffffffffffffffffffffffff16815260200190815260200160002060009054906101000a900460ff16905092915050565b600081612af8816132a7565b612b37576040517f08c379a0000000000000000000000000000000000000000000000000000000008152600401612b2e90614a21565b60405180910390fd5b600073ffffffffffffffffffffffffffffffffffffffff163373ffffffffffffffffffffffffffffffffffffffff161415612ba7576040517f08c379a0000000000000000000000000000000000000000000000000000000008152600401612b9e90614d34565b60405180910390fd5b6000600b60008581526020019081526020016000206040518060c0016040529081600082015481526020016001820160009054906101000a900473ffffffffffffffffffffffffffffffffffffffff1673ffffffffffffffffffffffffffffffffffffffff1673ffffffffffffffffffffffffffffffffffffffff16815260200160028201548152602001600382015481526020016004820160009054906101000a900460ff161515151581526020016004820160019054906101000a900460ff16151515158152505090508060800151612cb7576040517f08c379a0000000000000000000000000000000000000000000000000000000008152600401612cae90614fcc565b60405180910390fd5b8060a0015115612cc657600080fd5b806020015173ffffffffffffffffffffffffffffffffffffffff163373ffffffffffffffffffffffffffffffffffffffff1614612d0257600080fd5b6000612d0d856115aa565b9050600073ffffffffffffffffffffffffffffffffffffffff168173ffffffffffffffffffffffffffffffffffffffff161415612d4957600080fd5b6000600a60008781526020019081526020016000206040518061012001604052908160008201548152602001600182018054612d84906147ed565b80601f0160208091040260200160405190810160405280929190818152602001828054612db0906147ed565b8015612dfd5780601f10612dd257610100808354040283529160200191612dfd565b820191906000526020600020905b815481529060010190602001808311612de057829003601f168201915b50505050508152602001600282018054612e16906147ed565b80601f0160208091040260200160405190810160405280929190818152602001828054612e42906147ed565b8015612e8f5780601f10612e6457610100808354040283529160200191612e8f565b820191906000526020600020905b815481529060010190602001808311612e7257829003601f168201915b505050505081526020016003820160009054906101000a900473ffffffffffffffffffffffffffffffffffffffff1673ffffffffffffffffffffffffffffffffffffffff1673ffffffffffffffffffffffffffffffffffffffff1681526020016004820160009054906101000a900473ffffffffffffffffffffffffffffffffffffffff1673ffffffffffffffffffffffffffffffffffffffff1673ffffffffffffffffffffffffffffffffffffffff1681526020016005820160009054906101000a900473ffffffffffffffffffffffffffffffffffffffff1673ffffffffffffffffffffffffffffffffffffffff1673ffffffffffffffffffffffffffffffffffffffff16815260200160068201548152602001600782015481526020016008820160009054906101000a900460ff1615151515815250509050612fd68233886134b2565b8173ffffffffffffffffffffffffffffffffffffffff166108fc349081150290604051600060405180830381858888f1935050505015801561301c573d6000803e3d6000fd5b5080608001518160a0019073ffffffffffffffffffffffffffffffffffffffff16908173ffffffffffffffffffffffffffffffffffffffff168152505033816080019073ffffffffffffffffffffffffffffffffffffffff16908173ffffffffffffffffffffffffffffffffffffffff168152505082604001518160c001818152505060018160e0018181516130b29190614b48565b9150818152505060008161010001901515908115158152505080600a6000888152602001908152602001600020600082015181600001556020820151816001019080519060200190613105929190613df3565b506040820151816002019080519060200190613122929190613df3565b5060608201518160030160006101000a81548173ffffffffffffffffffffffffffffffffffffffff021916908373ffffffffffffffffffffffffffffffffffffffff16021790555060808201518160040160006101000a81548173ffffffffffffffffffffffffffffffffffffffff021916908373ffffffffffffffffffffffffffffffffffffffff16021790555060a08201518160050160006101000a81548173ffffffffffffffffffffffffffffffffffffffff021916908373ffffffffffffffffffffffffffffffffffffffff16021790555060c0820151816006015560e082015181600701556101008201518160080160006101000a81548160ff0219169083151502179055509050506001945050505050919050565b60007f01ffc9a7000000000000000000000000000000000000000000000000000000007bffffffffffffffffffffffffffffffffffffffffffffffffffffffff1916827bffffffffffffffffffffffffffffffffffffffffffffffffffffffff1916149050919050565b60008073ffffffffffffffffffffffffffffffffffffffff166002600084815260200190815260200160002060009054906101000a900473ffffffffffffffffffffffffffffffffffffffff1673ffffffffffffffffffffffffffffffffffffffff1614159050919050565b600033905090565b816004600083815260200190815260200160002060006101000a81548173ffffffffffffffffffffffffffffffffffffffff021916908373ffffffffffffffffffffffffffffffffffffffff160217905550808273ffffffffffffffffffffffffffffffffffffffff1661338e836115aa565b73ffffffffffffffffffffffffffffffffffffffff167f8c5be1e5ebec7d5bd14f71427d1e84f3dd0314c0f7b2291e5b200ac8c7c3b92560405160405180910390a45050565b60006133df826132a7565b61341e576040517f08c379a000000000000000000000000000000000000000000000000000000000815260040161341590615114565b60405180910390fd5b6000613429836115aa565b90508073ffffffffffffffffffffffffffffffffffffffff168473ffffffffffffffffffffffffffffffffffffffff16148061349857508373ffffffffffffffffffffffffffffffffffffffff1661348084610a18565b73ffffffffffffffffffffffffffffffffffffffff16145b806134a957506134a88185612a58565b5b91505092915050565b8273ffffffffffffffffffffffffffffffffffffffff166134d2826115aa565b73ffffffffffffffffffffffffffffffffffffffff1614613528576040517f08c379a000000000000000000000000000000000000000000000000000000000815260040161351f906151a6565b60405180910390fd5b600073ffffffffffffffffffffffffffffffffffffffff168273ffffffffffffffffffffffffffffffffffffffff161415613598576040517f08c379a000000000000000000000000000000000000000000000000000000000815260040161358f90615238565b60405180910390fd5b6135a38383836138ba565b6135ae60008261331b565b6001600360008573ffffffffffffffffffffffffffffffffffffffff1673ffffffffffffffffffffffffffffffffffffffff16815260200190815260200160002060008282546135fe9190615258565b925050819055506001600360008473ffffffffffffffffffffffffffffffffffffffff1673ffffffffffffffffffffffffffffffffffffffff16815260200190815260200160002060008282546136559190614b48565b92505081905550816002600083815260200190815260200160002060006101000a81548173ffffffffffffffffffffffffffffffffffffffff021916908373ffffffffffffffffffffffffffffffffffffffff160217905550808273ffffffffffffffffffffffffffffffffffffffff168473ffffffffffffffffffffffffffffffffffffffff167fddf252ad1be2c89b69c2b068fc378daa952ba7f163c4a11628f55a4df523b3ef60405160405180910390a4505050565b6137288282604051806020016040528060008152506138bf565b5050565b613735826132a7565b613774576040517f08c379a000000000000000000000000000000000000000000000000000000000815260040161376b906152fe565b60405180910390fd5b8060066000848152602001908152602001600020908051906020019061379b929190613df3565b505050565b6137ab8484846134b2565b6137b78484848461391a565b6137f6576040517f08c379a00000000000000000000000000000000000000000000000000000000081526004016137ed90615390565b60405180910390fd5b50505050565b606060405180602001604052806000815250905090565b606061381e826132a7565b61385d576040517f08c379a000000000000000000000000000000000000000000000000000000000815260040161385490615422565b60405180910390fd5b60006138676137fc565b9050600081511161388757604051806020016040528060008152506138b2565b8061389184613ab1565b6040516020016138a292919061507e565b6040516020818303038152906040525b915050919050565b505050565b6138c98383613c12565b6138d6600084848461391a565b613915576040517f08c379a000000000000000000000000000000000000000000000000000000000815260040161390c90615390565b60405180910390fd5b505050565b600061393b8473ffffffffffffffffffffffffffffffffffffffff16613de0565b15613aa4578373ffffffffffffffffffffffffffffffffffffffff1663150b7a02613964613313565b8786866040518563ffffffff1660e01b81526004016139869493929190615497565b602060405180830381600087803b1580156139a057600080fd5b505af19250505080156139d157506040513d601f19601f820116820180604052508101906139ce91906154f8565b60015b613a54573d8060008114613a01576040519150601f19603f3d011682016040523d82523d6000602084013e613a06565b606091505b50600081511415613a4c576040517f08c379a0000000000000000000000000000000000000000000000000000000008152600401613a4390615390565b60405180910390fd5b805181602001fd5b63150b7a0260e01b7bffffffffffffffffffffffffffffffffffffffffffffffffffffffff1916817bffffffffffffffffffffffffffffffffffffffffffffffffffffffff191614915050613aa9565b600190505b949350505050565b60606000821415613af9576040518060400160405280600181526020017f30000000000000000000000000000000000000000000000000000000000000008152509050613c0d565b600082905060005b60008214613b2b578080613b1490614d54565b915050600a82613b249190615554565b9150613b01565b60008167ffffffffffffffff811115613b4757613b4661427f565b5b6040519080825280601f01601f191660200182016040528015613b795781602001600182028036833780820191505090505b5090505b60008514613c0657600182613b929190615258565b9150600a85613ba19190615585565b6030613bad9190614b48565b60f81b818381518110613bc357613bc26155b6565b5b60200101907effffffffffffffffffffffffffffffffffffffffffffffffffffffffffffff1916908160001a905350600a85613bff9190615554565b9450613b7d565b8093505050505b919050565b600073ffffffffffffffffffffffffffffffffffffffff168273ffffffffffffffffffffffffffffffffffffffff161415613c82576040517f08c379a0000000000000000000000000000000000000000000000000000000008152600401613c7990615631565b60405180910390fd5b613c8b816132a7565b15613ccb576040517f08c379a0000000000000000000000000000000000000000000000000000000008152600401613cc29061569d565b60405180910390fd5b613cd7600083836138ba565b6001600360008473ffffffffffffffffffffffffffffffffffffffff1673ffffffffffffffffffffffffffffffffffffffff1681526020019081526020016000206000828254613d279190614b48565b92505081905550816002600083815260200190815260200160002060006101000a81548173ffffffffffffffffffffffffffffffffffffffff021916908373ffffffffffffffffffffffffffffffffffffffff160217905550808273ffffffffffffffffffffffffffffffffffffffff16600073ffffffffffffffffffffffffffffffffffffffff167fddf252ad1be2c89b69c2b068fc378daa952ba7f163c4a11628f55a4df523b3ef60405160405180910390a45050565b600080823b905060008111915050919050565b828054613dff906147ed565b90600052602060002090601f016020900481019282613e215760008555613e68565b82601f10613e3a57805160ff1916838001178555613e68565b82800160010185558215613e68579182015b82811115613e67578251825591602001919060010190613e4c565b5b509050613e759190613e79565b5090565b5b80821115613e92576000816000905550600101613e7a565b5090565b6000604051905090565b600080fd5b600080fd5b60007fffffffff0000000000000000000000000000000000000000000000000000000082169050919050565b613edf81613eaa565b8114613eea57600080fd5b50565b600081359050613efc81613ed6565b92915050565b600060208284031215613f1857613f17613ea0565b5b6000613f2684828501613eed565b91505092915050565b60008115159050919050565b613f4481613f2f565b82525050565b6000602082019050613f5f6000830184613f3b565b92915050565b600081519050919050565b600082825260208201905092915050565b60005b83811015613f9f578082015181840152602081019050613f84565b83811115613fae576000848401525b50505050565b6000601f19601f8301169050919050565b6000613fd082613f65565b613fda8185613f70565b9350613fea818560208601613f81565b613ff381613fb4565b840191505092915050565b600060208201905081810360008301526140188184613fc5565b905092915050565b6000819050919050565b61403381614020565b811461403e57600080fd5b50565b6000813590506140508161402a565b92915050565b60006020828403121561406c5761406b613ea0565b5b600061407a84828501614041565b91505092915050565b600073ffffffffffffffffffffffffffffffffffffffff82169050919050565b60006140ae82614083565b9050919050565b6140be816140a3565b82525050565b60006020820190506140d960008301846140b5565b92915050565b6140e8816140a3565b81146140f357600080fd5b50565b600081359050614105816140df565b92915050565b6000806040838503121561412257614121613ea0565b5b6000614130858286016140f6565b925050602061414185828601614041565b9150509250929050565b61415481614020565b82525050565b600060208201905061416f600083018461414b565b92915050565b6000806040838503121561418c5761418b613ea0565b5b600061419a85828601614041565b92505060206141ab85828601614041565b9150509250929050565b6000806000606084860312156141ce576141cd613ea0565b5b60006141dc868287016140f6565b93505060206141ed868287016140f6565b92505060406141fe86828701614041565b9150509250925092565b6000806040838503121561421f5761421e613ea0565b5b600061422d85828601614041565b925050602061423e858286016140f6565b9150509250929050565b60006020828403121561425e5761425d613ea0565b5b600061426c848285016140f6565b91505092915050565b600080fd5b600080fd5b7f4e487b7100000000000000000000000000000000000000000000000000000000600052604160045260246000fd5b6142b782613fb4565b810181811067ffffffffffffffff821117156142d6576142d561427f565b5b80604052505050565b60006142e9613e96565b90506142f582826142ae565b919050565b600067ffffffffffffffff8211156143155761431461427f565b5b61431e82613fb4565b9050602081019050919050565b82818337600083830152505050565b600061434d614348846142fa565b6142df565b9050828152602081018484840111156143695761436861427a565b5b61437484828561432b565b509392505050565b600082601f83011261439157614390614275565b5b81356143a184826020860161433a565b91505092915050565b6000602082840312156143c0576143bf613ea0565b5b600082013567ffffffffffffffff8111156143de576143dd613ea5565b5b6143ea8482850161437c565b91505092915050565b60008060006060848603121561440c5761440b613ea0565b5b600084013567ffffffffffffffff81111561442a57614429613ea5565b5b6144368682870161437c565b935050602084013567ffffffffffffffff81111561445757614456613ea5565b5b6144638682870161437c565b925050604061447486828701614041565b9150509250925092565b60008060006060848603121561449757614496613ea0565b5b60006144a586828701614041565b93505060206144b686828701614041565b92505060406144c786828701614041565b9150509250925092565b6144da81613f2f565b81146144e557600080fd5b50565b6000813590506144f7816144d1565b92915050565b6000806040838503121561451457614513613ea0565b5b6000614522858286016140f6565b9250506020614533858286016144e8565b9150509250929050565b600067ffffffffffffffff8211156145585761455761427f565b5b61456182613fb4565b9050602081019050919050565b600061458161457c8461453d565b6142df565b90508281526020810184848401111561459d5761459c61427a565b5b6145a884828561432b565b509392505050565b600082601f8301126145c5576145c4614275565b5b81356145d584826020860161456e565b91505092915050565b600080600080608085870312156145f8576145f7613ea0565b5b6000614606878288016140f6565b9450506020614617878288016140f6565b935050604061462887828801614041565b925050606085013567ffffffffffffffff81111561464957614648613ea5565b5b614655878288016145b0565b91505092959194509250565b600061466c82614083565b9050919050565b61467c81614661565b82525050565b600061012082019050614698600083018c61414b565b81810360208301526146aa818b613fc5565b905081810360408301526146be818a613fc5565b90506146cd6060830189614673565b6146da6080830188614673565b6146e760a0830187614673565b6146f460c083018661414b565b61470160e083018561414b565b61470f610100830184613f3b565b9a9950505050505050505050565b600060c082019050614732600083018961414b565b61473f6020830188614673565b61474c604083018761414b565b614759606083018661414b565b6147666080830185613f3b565b61477360a0830184613f3b565b979650505050505050565b6000806040838503121561479557614794613ea0565b5b60006147a3858286016140f6565b92505060206147b4858286016140f6565b9150509250929050565b7f4e487b7100000000000000000000000000000000000000000000000000000000600052602260045260246000fd5b6000600282049050600182168061480557607f821691505b60208210811415614819576148186147be565b5b50919050565b7f4552433732313a20617070726f76656420717565727920666f72206e6f6e657860008201527f697374656e7420746f6b656e0000000000000000000000000000000000000000602082015250565b600061487b602c83613f70565b91506148868261481f565b604082019050919050565b600060208201905081810360008301526148aa8161486e565b9050919050565b7f4552433732313a20617070726f76616c20746f2063757272656e74206f776e6560008201527f7200000000000000000000000000000000000000000000000000000000000000602082015250565b600061490d602183613f70565b9150614918826148b1565b604082019050919050565b6000602082019050818103600083015261493c81614900565b9050919050565b7f4552433732313a20617070726f76652063616c6c6572206973206e6f74206f7760008201527f6e6572206e6f7220617070726f76656420666f7220616c6c0000000000000000602082015250565b600061499f603883613f70565b91506149aa82614943565b604082019050919050565b600060208201905081810360008301526149ce81614992565b9050919050565b7f546f6b656e20494420646f6573206e6f742065786973742e0000000000000000600082015250565b6000614a0b601883613f70565b9150614a16826149d5565b602082019050919050565b60006020820190508181036000830152614a3a816149fe565b9050919050565b7f4f776e65722063616e6e6f742063616c6c20746869732066756e6374696f6e2e600082015250565b6000614a77602083613f70565b9150614a8282614a41565b602082019050919050565b60006020820190508181036000830152614aa681614a6a565b9050919050565b7f41756374696f6e20616c726561647920656e6465642e00000000000000000000600082015250565b6000614ae3601683613f70565b9150614aee82614aad565b602082019050919050565b60006020820190508181036000830152614b1281614ad6565b9050919050565b7f4e487b7100000000000000000000000000000000000000000000000000000000600052601160045260246000fd5b6000614b5382614020565b9150614b5e83614020565b9250827fffffffffffffffffffffffffffffffffffffffffffffffffffffffffffffffff03821115614b9357614b92614b19565b5b828201905092915050565b7f4552433732313a207472616e736665722063616c6c6572206973206e6f74206f60008201527f776e6572206e6f7220617070726f766564000000000000000000000000000000602082015250565b6000614bfa603183613f70565b9150614c0582614b9e565b604082019050919050565b60006020820190508181036000830152614c2981614bed565b9050919050565b7f4552433732313a206f776e657220717565727920666f72206e6f6e657869737460008201527f656e7420746f6b656e0000000000000000000000000000000000000000000000602082015250565b6000614c8c602983613f70565b9150614c9782614c30565b604082019050919050565b60006020820190508181036000830152614cbb81614c7f565b9050919050565b7f546865206675636e74696f6e2063616c6c6572206973207a65726f206164647260008201527f657373206163636f756e742e0000000000000000000000000000000000000000602082015250565b6000614d1e602c83613f70565b9150614d2982614cc2565b604082019050919050565b60006020820190508181036000830152614d4d81614d11565b9050919050565b6000614d5f82614020565b91507fffffffffffffffffffffffffffffffffffffffffffffffffffffffffffffffff821415614d9257614d91614b19565b5b600182019050919050565b600081905092915050565b6000614db382613f65565b614dbd8185614d9d565b9350614dcd818560208601613f81565b80840191505092915050565b6000614de58284614da8565b915081905092915050565b7f4552433732313a2062616c616e636520717565727920666f7220746865207a6560008201527f726f206164647265737300000000000000000000000000000000000000000000602082015250565b6000614e4c602a83613f70565b9150614e5782614df0565b604082019050919050565b60006020820190508181036000830152614e7b81614e3f565b9050919050565b7f4f6e6c79206f776e65722063616e2063616c6c20746869732066756e6374696f60008201527f6e2e000000000000000000000000000000000000000000000000000000000000602082015250565b6000614ede602283613f70565b9150614ee982614e82565b604082019050919050565b60006020820190508181036000830152614f0d81614ed1565b9050919050565b7f4552433732313a20617070726f766520746f2063616c6c657200000000000000600082015250565b6000614f4a601983613f70565b9150614f5582614f14565b602082019050919050565b60006020820190508181036000830152614f7981614f3d565b9050919050565b7f41756374696f6e206e6f742079657420656e6465642e00000000000000000000600082015250565b6000614fb6601683613f70565b9150614fc182614f80565b602082019050919050565b60006020820190508181036000830152614fe581614fa9565b9050919050565b7f45524337323155524953746f726167653a2055524920717565727920666f722060008201527f6e6f6e6578697374656e7420746f6b656e000000000000000000000000000000602082015250565b6000615048603183613f70565b915061505382614fec565b604082019050919050565b600060208201905081810360008301526150778161503b565b9050919050565b600061508a8285614da8565b91506150968284614da8565b91508190509392505050565b7f4552433732313a206f70657261746f7220717565727920666f72206e6f6e657860008201527f697374656e7420746f6b656e0000000000000000000000000000000000000000602082015250565b60006150fe602c83613f70565b9150615109826150a2565b604082019050919050565b6000602082019050818103600083015261512d816150f1565b9050919050565b7f4552433732313a207472616e73666572206f6620746f6b656e2074686174206960008201527f73206e6f74206f776e0000000000000000000000000000000000000000000000602082015250565b6000615190602983613f70565b915061519b82615134565b604082019050919050565b600060208201905081810360008301526151bf81615183565b9050919050565b7f4552433732313a207472616e7366657220746f20746865207a65726f2061646460008201527f7265737300000000000000000000000000000000000000000000000000000000602082015250565b6000615222602483613f70565b915061522d826151c6565b604082019050919050565b6000602082019050818103600083015261525181615215565b9050919050565b600061526382614020565b915061526e83614020565b92508282101561528157615280614b19565b5b828203905092915050565b7f45524337323155524953746f726167653a2055524920736574206f66206e6f6e60008201527f6578697374656e7420746f6b656e000000000000000000000000000000000000602082015250565b60006152e8602e83613f70565b91506152f38261528c565b604082019050919050565b60006020820190508181036000830152615317816152db565b9050919050565b7f4552433732313a207472616e7366657220746f206e6f6e20455243373231526560008201527f63656976657220696d706c656d656e7465720000000000000000000000000000602082015250565b600061537a603283613f70565b91506153858261531e565b604082019050919050565b600060208201905081810360008301526153a98161536d565b9050919050565b7f4552433732314d657461646174613a2055524920717565727920666f72206e6f60008201527f6e6578697374656e7420746f6b656e0000000000000000000000000000000000602082015250565b600061540c602f83613f70565b9150615417826153b0565b604082019050919050565b6000602082019050818103600083015261543b816153ff565b9050919050565b600081519050919050565b600082825260208201905092915050565b600061546982615442565b615473818561544d565b9350615483818560208601613f81565b61548c81613fb4565b840191505092915050565b60006080820190506154ac60008301876140b5565b6154b960208301866140b5565b6154c6604083018561414b565b81810360608301526154d8818461545e565b905095945050505050565b6000815190506154f281613ed6565b92915050565b60006020828403121561550e5761550d613ea0565b5b600061551c848285016154e3565b91505092915050565b7f4e487b7100000000000000000000000000000000000000000000000000000000600052601260045260246000fd5b600061555f82614020565b915061556a83614020565b92508261557a57615579615525565b5b828204905092915050565b600061559082614020565b915061559b83614020565b9250826155ab576155aa615525565b5b828206905092915050565b7f4e487b7100000000000000000000000000000000000000000000000000000000600052603260045260246000fd5b7f4552433732313a206d696e7420746f20746865207a65726f2061646472657373600082015250565b600061561b602083613f70565b9150615626826155e5565b602082019050919050565b6000602082019050818103600083015261564a8161560e565b9050919050565b7f4552433732313a20746f6b656e20616c7265616479206d696e74656400000000600082015250565b6000615687601c83613f70565b915061569282615651565b602082019050919050565b600060208201905081810360008301526156b68161567a565b905091905056fea2646970667358221220be6102ff05cfcd06fca512bdae7e7b4c4e0a296e3a95f053092b71419a167ecc64736f6c63430008090033",
  "immutableReferences": {},
  "source": "// SPDX-License-Identifier: MIT\npragma solidity ^0.8.0;\n\n// import ERC721 iterface\nimport \"@openzeppelin/contracts/token/ERC721/extensions/ERC721URIStorage.sol\";\n\n// NFTs smart contract inherits ERC721 interface\ncontract NFTAuction is ERC721URIStorage{\n\n    // this contract's token collection name\n    string public collectionName;\n    // this contract's token symbol\n    string public collectionNameSymbol;\n    // total number of crypto boys minted\n    uint256 public NFTCounter;\n\n    struct NFT {\n        uint256 tokenID;\n        string tokenName;\n        string tokenURI;\n        address payable mintedBy;\n        address payable currentOwner;\n        address payable previousOwner;\n        uint256 price;\n        uint256 transNum;\n        bool onSale;\n    }\n\n    struct Auction {\n        uint256 minBid;\n        address payable highestBidder;\n        uint256 highestBid;\n        uint endTime;\n        bool ended;\n        bool claimed;\n    }\n\n    mapping(uint256 => NFT) public allNFTs;\n    mapping(uint256 => Auction) public AuctionsOfNFT;\n    mapping(uint256 => mapping(address => uint256)) public fundsByBidder; //map tokenID to fundsByBidder\n    mapping(address => uint256[]) public attendAuctions;\n    mapping(address => uint) public attendAuctionsNum;\n\n    // check if token name exists\n    mapping(string => bool) public tokenNameExists;\n    // check if token URI exists\n    mapping(string => bool) public tokenURIExists;\n\n    // initialize contract while deployment with contract's collection name and token\n    constructor() ERC721(\"NFT Collection\", \"NFT\") {\n        collectionName = name();\n        collectionNameSymbol = symbol();\n    }\n\n    modifier notZeroAddress() {\n        require(\n            msg.sender != address(0),\n            \"The fucntion caller is zero address account.\"\n        );\n        _;\n    }\n\n    modifier isOwner(uint256 _tokenID) {\n        require(\n            msg.sender == ownerOf(_tokenID),\n            \"Only owner can call this function.\"\n        );\n        _;\n    }\n\n    modifier notOwner(uint256 _tokenID) {\n        require(\n            msg.sender != ownerOf(_tokenID),\n            \"Owner cannot call this function.\"\n        );\n        _;\n    }\n\n    modifier notEnded(uint256 _tokenID) {\n        Auction memory auction = AuctionsOfNFT[_tokenID];\n        require(\n            block.timestamp <= auction.endTime,\n            \"Auction already ended.\"\n        );\n        _;\n    }\n\n    modifier tokenExist(uint256 _tokenID) {\n        require(\n            _exists(_tokenID),\n            \"Token ID does not exist.\"\n        );\n        _;\n    }\n\n    function getTime() public view returns (uint) {\n        return block.timestamp;\n    }\n\n    // mint a new NFT\n    function mintNFT(string memory _name, string memory  _tokenURI, uint256 _price) external notZeroAddress {\n        // increment counter\n        NFTCounter++;\n        // check if a token exists with the above token id =>   incremented counter\n        require(!_exists(NFTCounter));\n        // check if the token URI already exists or not\n        require(!tokenURIExists[_tokenURI]);\n        // check if the token name already exists or not\n        require(!tokenNameExists[_name]);\n    \n        // mint the token\n        _safeMint(msg.sender, NFTCounter);\n        // set token URI (bind token id with the passed in token URI)\n        _setTokenURI(NFTCounter, _tokenURI);\n    \n        // make passed token URI as exists\n        tokenURIExists[_tokenURI] = true;\n        // make token name passed as exists\n        tokenNameExists[_name] = true;\n    \n        // creat a new NFT (struct) and pass in new values\n        NFT memory newNFT = NFT(\n            NFTCounter,\n            _name,\n            _tokenURI,\n            payable(msg.sender),\n            payable(msg.sender),\n            payable(address(0)),\n            _price,\n            0,\n            false\n        );\n        // add the token id and it's NFT to all NFTs mapping\n        allNFTs[NFTCounter] = newNFT;\n    }\n  \n    // get owner of the token\n    function getTokenOwner(uint256 _tokenID) public view returns  (address) {\n        address _tokenOwner = ownerOf(_tokenID);\n        return _tokenOwner;\n    }\n  \n    // get metadata of the token\n    function getTokenMetaData(uint _tokenID) public view returns  (string memory) {\n        string memory tokenMetaData = tokenURI(_tokenID);\n        return tokenMetaData;\n    }\n  \n    // get total number of tokens owned by an address\n    function getTotalNumberOfTokensOwnedByAnAddress(address _owner) public view returns(uint256) {\n        uint256 totalNumberOfTokensOwned = balanceOf(_owner);\n        return totalNumberOfTokensOwned;\n    }\n  \n    function beginAuction(uint256 _tokenID, uint256 _minBid, uint _duration) tokenExist(_tokenID) isOwner(_tokenID) public returns (bool success) {\n        uint _endTime = block.timestamp+_duration;\n        NFT memory nft = allNFTs[_tokenID];\n        nft.onSale = true;\n        Auction memory newAuction = Auction(\n            _minBid,\n            payable(msg.sender),\n            _minBid,\n            _endTime,\n            false,\n            false\n        );\n\n        allNFTs[_tokenID] = nft;\n        AuctionsOfNFT[_tokenID] = newAuction;\n        return true;\n    }\n\n    function increaseBid(uint256 _tokenID, uint256 newBid) tokenExist(_tokenID) notOwner(_tokenID) notEnded(_tokenID) public returns (bool success) {\n        Auction memory auction = AuctionsOfNFT[_tokenID];\n        if (newBid <= auction.highestBid) revert();\n\n        NFT memory nft = allNFTs[_tokenID];\n        nft.price = newBid;\n        allNFTs[_tokenID] = nft;\n        \n        attendAuctionsNum[msg.sender] += 1;\n        attendAuctions[msg.sender].push(_tokenID);\n        fundsByBidder[_tokenID][msg.sender] = newBid;\n        auction.highestBidder = payable(msg.sender);\n        auction.highestBid = newBid;\n        AuctionsOfNFT[_tokenID] = auction;\n        return true;\n    }\n\n    function endAuction(uint256 _tokenID) tokenExist(_tokenID) public returns (bool success) {\n        Auction memory auction = AuctionsOfNFT[_tokenID];\n        require(block.timestamp >= auction.endTime, \"Auction not yet ended.\");\n\n        auction.ended = true;\n\n        AuctionsOfNFT[_tokenID] = auction;\n        return true;\n    }\n\n    function claimNFT(uint256 _tokenID) public payable tokenExist(_tokenID) notZeroAddress returns (bool success) {\n        Auction memory auction = AuctionsOfNFT[_tokenID];\n        // require(auction.ended);\n        require(auction.ended, \"Auction not yet ended.\");\n        require(!auction.claimed);\n        require(msg.sender == auction.highestBidder);\n        // get the token's owner\n        address tokenOwner = ownerOf(_tokenID);\n        // token's owner should not be an zero address account\n        require(tokenOwner != address(0));\n\n        NFT memory nft = allNFTs[_tokenID];\n        _transfer(tokenOwner, msg.sender, _tokenID);\n        // // get owner of the token\n        // address payable sendTo = nft.currentOwner;\n        // send token's worth of ethers to the owner\n        payable(tokenOwner).transfer(msg.value);\n        nft.previousOwner = nft.currentOwner;\n        nft.currentOwner = payable(msg.sender);\n        nft.price = auction.highestBid;\n        nft.transNum += 1;\n        nft.onSale = false;\n        allNFTs[_tokenID] = nft;\n        return true;\n    }\n}",
  "sourcePath": "D:\\final\\contracts\\NFTAuction.sol",
  "compiler": {
    "name": "solc",
    "version": "0.8.9+commit.e5eed63a.Emscripten.clang"
  },
  "schemaVersion": "3.4.3",
  "updatedAt": "2021-11-05T13:03:17.686Z",
  "devdoc": {
    "kind": "dev",
    "methods": {
      "approve(address,uint256)": {
        "details": "See {IERC721-approve}."
      },
      "balanceOf(address)": {
        "details": "See {IERC721-balanceOf}."
      },
      "getApproved(uint256)": {
        "details": "See {IERC721-getApproved}."
      },
      "isApprovedForAll(address,address)": {
        "details": "See {IERC721-isApprovedForAll}."
      },
      "name()": {
        "details": "See {IERC721Metadata-name}."
      },
      "ownerOf(uint256)": {
        "details": "See {IERC721-ownerOf}."
      },
      "safeTransferFrom(address,address,uint256)": {
        "details": "See {IERC721-safeTransferFrom}."
      },
      "safeTransferFrom(address,address,uint256,bytes)": {
        "details": "See {IERC721-safeTransferFrom}."
      },
      "setApprovalForAll(address,bool)": {
        "details": "See {IERC721-setApprovalForAll}."
      },
      "supportsInterface(bytes4)": {
        "details": "See {IERC165-supportsInterface}."
      },
      "symbol()": {
        "details": "See {IERC721Metadata-symbol}."
      },
      "tokenURI(uint256)": {
        "details": "See {IERC721Metadata-tokenURI}."
      },
      "transferFrom(address,address,uint256)": {
        "details": "See {IERC721-transferFrom}."
      }
    },
    "version": 1
  },
  "userdoc": {
    "kind": "user",
    "methods": {},
    "version": 1
  }
}